{
  "_format": "hh-sol-artifact-1",
  "contractName": "UserRegistry",
  "sourceName": "contracts/UserRegistry.sol",
  "abi": [
    {
      "inputs": [],
      "stateMutability": "nonpayable",
      "type": "constructor"
    },
    {
      "anonymous": false,
      "inputs": [
        {
          "indexed": true,
          "internalType": "string",
          "name": "username",
          "type": "string"
        },
        {
          "indexed": false,
          "internalType": "string",
          "name": "newDidEmberveilDocument",
          "type": "string"
        },
        {
          "indexed": false,
          "internalType": "uint256",
          "name": "timestamp",
          "type": "uint256"
        }
      ],
      "name": "DIDDocumentUpdated",
      "type": "event"
    },
    {
      "anonymous": false,
      "inputs": [
        {
          "indexed": true,
          "internalType": "string",
          "name": "username",
          "type": "string"
        },
        {
          "indexed": false,
          "internalType": "uint256",
          "name": "timestamp",
          "type": "uint256"
        }
      ],
      "name": "UserDeactivated",
      "type": "event"
    },
    {
      "anonymous": false,
      "inputs": [
        {
          "indexed": true,
          "internalType": "string",
          "name": "username",
          "type": "string"
        },
        {
          "indexed": false,
          "internalType": "string",
          "name": "didEmberveilDocument",
          "type": "string"
        },
        {
          "indexed": false,
          "internalType": "string",
          "name": "ed25519PublicKey",
          "type": "string"
        },
        {
          "indexed": false,
          "internalType": "uint256",
          "name": "timestamp",
          "type": "uint256"
        }
      ],
      "name": "UserRegistered",
      "type": "event"
    },
    {
      "inputs": [
        {
          "internalType": "string",
          "name": "username",
          "type": "string"
        }
      ],
      "name": "deactivateUser",
      "outputs": [],
      "stateMutability": "nonpayable",
      "type": "function"
    },
    {
      "inputs": [
        {
          "internalType": "string",
          "name": "username",
          "type": "string"
        }
      ],
      "name": "getDIDDocument",
      "outputs": [
        {
          "internalType": "string",
          "name": "",
          "type": "string"
        }
      ],
      "stateMutability": "view",
      "type": "function"
    },
    {
      "inputs": [
        {
          "internalType": "string",
          "name": "username",
          "type": "string"
        }
      ],
      "name": "getEd25519PublicKey",
      "outputs": [
        {
          "internalType": "string",
          "name": "",
          "type": "string"
        }
      ],
      "stateMutability": "view",
      "type": "function"
    },
    {
      "inputs": [
        {
          "internalType": "string",
          "name": "username",
          "type": "string"
        }
      ],
      "name": "getUserProfile",
      "outputs": [
        {
          "components": [
            {
              "internalType": "string",
              "name": "didEmberveilDocument",
              "type": "string"
            },
            {
              "internalType": "string",
              "name": "metadataCID",
              "type": "string"
            },
            {
              "internalType": "string",
              "name": "ed25519PublicKey",
              "type": "string"
            },
            {
              "internalType": "string",
              "name": "passwordDoubleHash",
              "type": "string"
            },
            {
              "internalType": "uint256",
              "name": "registrationTime",
              "type": "uint256"
            },
            {
              "internalType": "bool",
              "name": "isActive",
              "type": "bool"
            }
          ],
          "internalType": "struct UserRegistry.UserProfile",
          "name": "",
          "type": "tuple"
        }
      ],
      "stateMutability": "view",
      "type": "function"
    },
    {
      "inputs": [
        {
          "internalType": "string",
          "name": "username",
          "type": "string"
        }
      ],
      "name": "isUserActive",
      "outputs": [
        {
          "internalType": "bool",
          "name": "",
          "type": "bool"
        }
      ],
      "stateMutability": "view",
      "type": "function"
    },
    {
      "inputs": [
        {
          "internalType": "string",
          "name": "username",
          "type": "string"
        }
      ],
      "name": "isUsernameAvailable",
      "outputs": [
        {
          "internalType": "bool",
          "name": "",
          "type": "bool"
        }
      ],
      "stateMutability": "view",
      "type": "function"
    },
    {
      "inputs": [],
      "name": "owner",
      "outputs": [
        {
          "internalType": "address",
          "name": "",
          "type": "address"
        }
      ],
      "stateMutability": "view",
      "type": "function"
    },
    {
      "inputs": [
        {
          "internalType": "string",
          "name": "username",
          "type": "string"
        },
        {
          "internalType": "string",
          "name": "didDocument",
          "type": "string"
        },
        {
          "internalType": "string",
          "name": "ed25519PublicKey",
          "type": "string"
        },
        {
          "internalType": "string",
          "name": "passwordDoubleHash",
          "type": "string"
        }
      ],
      "name": "registerUser",
      "outputs": [
        {
          "internalType": "bool",
          "name": "",
          "type": "bool"
        }
      ],
      "stateMutability": "nonpayable",
      "type": "function"
    },
    {
      "inputs": [
        {
          "internalType": "string",
          "name": "",
          "type": "string"
        }
      ],
      "name": "registeredUsernames",
      "outputs": [
        {
          "internalType": "bool",
          "name": "",
          "type": "bool"
        }
      ],
      "stateMutability": "view",
      "type": "function"
    },
    {
      "inputs": [],
      "name": "totalUsers",
      "outputs": [
        {
          "internalType": "uint256",
          "name": "",
          "type": "uint256"
        }
      ],
      "stateMutability": "view",
      "type": "function"
    },
    {
      "inputs": [
        {
          "internalType": "address",
          "name": "newOwner",
          "type": "address"
        }
      ],
      "name": "transferOwnership",
      "outputs": [],
      "stateMutability": "nonpayable",
      "type": "function"
    },
    {
      "inputs": [
        {
          "internalType": "string",
          "name": "username",
          "type": "string"
        },
        {
          "internalType": "string",
          "name": "newDidDocument",
          "type": "string"
        }
      ],
      "name": "updateDIDDocument",
      "outputs": [
        {
          "internalType": "bool",
          "name": "",
          "type": "bool"
        }
      ],
      "stateMutability": "nonpayable",
      "type": "function"
    },
    {
      "inputs": [
        {
          "internalType": "string",
          "name": "username",
          "type": "string"
        },
        {
          "internalType": "string",
          "name": "newCID",
          "type": "string"
        }
      ],
      "name": "updateMetadataCID",
      "outputs": [
        {
          "internalType": "bool",
          "name": "",
          "type": "bool"
        }
      ],
      "stateMutability": "nonpayable",
      "type": "function"
    }
  ],
  "bytecode": "0x6080806040523461002d57600280546001600160a01b03191633179055600060035561149290816100338239f35b600080fdfe6080604052600436101561001257600080fd5b60003560e01c80630148a54b14610ee15780633afb0e8b14610d17578063784afc4e14610c855780637b46a92a14610bd75780638da5cb5b14610bae57806393e54a56146104ea578063a73e162714610478578063a81203b614610302578063bff1f9e1146102e4578063c03a6aa21461021f578063e097e925146101a7578063f2fde38b146101235763f69c6dec146100ab57600080fd5b3461011e57602036600319011261011e576004356001600160401b03811161011e5760ff60206100e081933690600401611072565b9190600283101580610114575b6100f6906111b3565b82604051938492833781016001815203019020541615604051908152f35b50818311156100ed565b600080fd5b3461011e57602036600319011261011e576004356001600160a01b038181169182900361011e5761015a6002549182163314611423565b8115610170576001600160a01b03191617600255005b60405162461bcd60e51b815260206004820152600f60248201526e496e76616c6964206164647265737360881b6044820152606490fd5b3461011e57602036600319011261011e576004356001600160401b03811161011e5760ff600560206101de81943690600401611072565b91906101ff85604051858482378481878101600181520301902054166112f9565b826040519384928337810160008152030190200154166040519015158152f35b3461011e57602036600319011261011e576004356001600160401b03811161011e5761024f903690600401611072565b9061026560018060a01b03600254163314611423565b61028660ff60405184848237602081868101600181520301902054166112f9565b60056040518383823760208185810160008152030190200160ff1981541690558160405192839283378101600081520390207f5cd658785798b0f9a7fac8c2691da9f9c09d11e6052af9dcef50e30b746779476020604051428152a2005b3461011e57600036600319011261011e576020600354604051908152f35b3461011e5760208060031936011261011e576004356001600160401b03811161011e57610333903690600401611072565b6040519291829061034385611131565b600060a060609687815287858201528760408201528780820152826080820152015261038560ff604051858482378481878101600181520301902054166112f9565b82604051938492833781016000815203019020604051926103a584611131565b6103ae8261133b565b84526104656103bf6001840161133b565b8486019081526103d16002850161133b565b90604087019182526104546103e86003870161133b565b9285890193845260ff600560048901549860808c01998a520154169560a08a01961515875261044361042d8a60c06040519d8e9d8e5251918d015260e08c019061110c565b945194601f1995868c83030160408d015261110c565b915190848a840301908a015261110c565b91519086830301608087015261110c565b915160a084015251151560c08301520390f35b3461011e57602036600319011261011e576004356001600160401b03811161011e573660238201121561011e5760ff6104d460206104c18194369060248160040135910161116d565b81604051938285809451938492016110e9565b8101600181520301902054166040519015158152f35b3461011e57608036600319011261011e576004356001600160401b03811161011e5761051a903690600401611072565b906024356001600160401b03811161011e5761053a903690600401611072565b6044356001600160401b03811161011e57610559903690600401611072565b94906064356001600160401b03811161011e5761057a903690600401611072565b600284101580610ba3575b61058e906111b3565b6105998515156111fe565b60ff60405185898237600186820152602081878101030190205416610b5e5760408803610b095760428103610aaa57604051916105d583611131565b6105e036878961116d565b8352604051918260208101106001600160401b0360208501111761092357826020610629940160405260008152602085015261061d368b8761116d565b6040850152369161116d565b6060820152426080820152600160a082015260405183878237602081858101600081520301902081518051906001600160401b03821161092357819061067982610673865461124a565b86611284565b602090601f8311600114610a3e57600092610a33575b50508160011b916000199060031b1c19161781555b60208201518051906001600160401b0382116109235781906106d6826106cd600187015461124a565b60018701611284565b602090601f83116001146109c1576000926109b6575b50508160011b916000199060031b1c19161760018201555b60408201518051906001600160401b0382116109235781906107368261072d600287015461124a565b60028701611284565b602090601f831160011461094457600092610939575b50508160011b916000199060031b1c19161760028201555b60608201518051906001600160401b038211610923576107948261078b600386015461124a565b60038601611284565b602090601f83116001146108ae57918060a094926005946000926108a3575b50508160011b916000199060031b1c19161760038201555b608084015160048201550191015115159060ff199160ff838354169116179055600160405184888237602081868101848152030190209182541617905560035491600019831461088d577f1c66755634ab907c3bd19a48c068cecbd8c6bd23426e649d6482ea5e54e8e00095600161087994016003558160405192839283378101600081520390209561086b6040519586956060875260608701916112d8565b9184830360208601526112d8565b4260408301520390a2602060405160018152f35b634e487b7160e01b600052601160045260246000fd5b015190508c806107b3565b906003840160005260206000209160005b601f198516811061090b57509260a0949260019260059583601f198116106108f2575b505050811b0160038201556107cb565b015160001960f88460031b161c191690558c80806108e2565b919260206001819286850151815501940192016108bf565b634e487b7160e01b600052604160045260246000fd5b015190508a8061074c565b9250600284016000526020600020906000935b601f198416851061099b576001945083601f19811610610982575b505050811b016002820155610764565b015160001960f88460031b161c191690558a8080610972565b81810151835560209485019460019093019290910190610957565b015190508a806106ec565b9250600184016000526020600020906000935b601f1984168510610a18576001945083601f198116106109ff575b505050811b016001820155610704565b015160001960f88460031b161c191690558a80806109ef565b818101518355602094850194600190930192909101906109d4565b015190508a8061068f565b9250836000526020600020906000935b601f1984168510610a8f576001945083601f19811610610a76575b505050811b0181556106a4565b015160001960f88460031b161c191690558a8080610a69565b81810151835560209485019460019093019290910190610a4e565b60405162461bcd60e51b815260206004820152603160248201527f70617373776f7264446f75626c6548617368206d75737420626520363620636860448201527061727320283078202b203634206865782960781b6064820152608490fd5b60405162461bcd60e51b815260206004820152602760248201527f45643235353139207075626c6963206b6579206d7573742062652036342068656044820152667820636861727360c81b6064820152608490fd5b60405162461bcd60e51b815260206004820152601b60248201527f557365726e616d6520616c7265616479207265676973746572656400000000006044820152606490fd5b506020841115610585565b3461011e57600036600319011261011e576002546040516001600160a01b039091168152602090f35b3461011e5760208060031936011261011e576004356001600160401b03811161011e57600282610c0e610c6c933690600401611072565b9190610c3060ff604051858482378481878101600181520301902054166112f9565b610c5360ff600560405186858237858188810160008152030190200154166113e1565b826040519384928337810160008152030190200161133b565b90610c8160405192828493845283019061110c565b0390f35b3461011e5760208060031936011261011e576004356001600160401b03811161011e5781610cba610c6c923690600401611072565b9190610cdc60ff604051858482378481878101600181520301902054166112f9565b610cff60ff600560405186858237858188810160008152030190200154166113e1565b8260405193849283378101600081520301902061133b565b3461011e57610d253661109f565b610d3e60018060a0969594961b03600254163314611423565b610d498115156111fe565b604051938284863782850192610d7160ff876001968781526020998a910301902054166112f9565b610d9460ff600560405184898237898186810160008152030190200154166113e1565b6040518186823786818381016000815203019020946001600160401b03841161092357610dcb84610dc5885461124a565b88611284565b600095601f8511600114610e5e57847fcb7215aca00031979d292f65058fda69c4ce6ea5b34c949b565b74522a1ce358959697600091610e53575b50600019600388901b1c191686881b1790555b81604051928392833781016000815203902092610e436040519283926040845260408401916112d8565b42878301520390a2604051908152f35b905084013589610e06565b601f1985169681600052886000209060005b8a8a8210610ecd575050867fcb7215aca00031979d292f65058fda69c4ce6ea5b34c949b565b74522a1ce35897989910610eb3575b50508686811b019055610e19565b850135600019600389901b60f8161c191690558880610ea5565b878301358455928901929182019101610e70565b3461011e57610eef3661109f565b610f0860018060a0969495961b03600254163314611423565b604051938083863780850192610f3060ff876001968781526020998a910301902054166112f9565b82156110375790858492610f5d60ff600560405186858237858188810160008152030190200154166113e1565b8260405193849283378101600081520301902001906001600160401b03811161092357610f9481610f8e845461124a565b84611284565b6000601f8211600114610fd45781929394600092610fc9575b5050600019600383901b1c191690831b1790555b604051908152f35b013590508580610fad565b601f1982169483600052866000209160005b8888821061102357505083869796959610611009575b505050811b019055610fc1565b0135600019600384901b60f8161c19169055858080610ffc565b838301358555938701939182019101610fe6565b60405162461bcd60e51b81526004810187905260136024820152724349442063616e6e6f7420626520656d70747960681b6044820152606490fd5b9181601f8401121561011e578235916001600160401b03831161011e576020838186019501011161011e57565b604060031982011261011e576001600160401b039160043583811161011e57826110cb91600401611072565b9390939260243591821161011e576110e591600401611072565b9091565b60005b8381106110fc5750506000910152565b81810151838201526020016110ec565b90602091611125815180928185528580860191016110e9565b601f01601f1916010190565b60c081019081106001600160401b0382111761092357604052565b90601f801991011681019081106001600160401b0382111761092357604052565b9291926001600160401b0382116109235760405191611196601f8201601f19166020018461114c565b82948184528183011161011e578281602093846000960137010152565b156111ba57565b606460405162461bcd60e51b815260206004820152602060248201527f557365726e616d65206d75737420626520322d333220636861726163746572736044820152fd5b1561120557565b60405162461bcd60e51b815260206004820152601c60248201527f44494420646f63756d656e742063616e6e6f7420626520656d707479000000006044820152606490fd5b90600182811c9216801561127a575b602083101461126457565b634e487b7160e01b600052602260045260246000fd5b91607f1691611259565b90601f811161129257505050565b600091825260208220906020601f850160051c830194106112ce575b601f0160051c01915b8281106112c357505050565b8181556001016112b7565b90925082906112ae565b908060209392818452848401376000828201840152601f01601f1916010190565b1561130057565b60405162461bcd60e51b8152602060048201526013602482015272155cd95c88191bd95cc81b9bdd08195e1a5cdd606a1b6044820152606490fd5b906040519182600082549261134f8461124a565b9081845260019485811690816000146113be575060011461137b575b50506113799250038361114c565b565b9093915060005260209081600020936000915b8183106113a65750506113799350820101388061136b565b8554888401850152948501948794509183019161138e565b91505061137994506020925060ff191682840152151560051b820101388061136b565b156113e857565b60405162461bcd60e51b8152602060048201526013602482015272155cd95c881a5cc819195858dd1a5d985d1959606a1b6044820152606490fd5b1561142a57565b60405162461bcd60e51b815260206004820152600a60248201526927b7363c9037bbb732b960b11b6044820152606490fdfea2646970667358221220af4bde77781156396d2e02e25772287145cb2a253e2c8758772a8e50390cf29b64736f6c63430008130033",
  "linkReferences": {},
  "deployedLinkReferences": {}
}