{
  "contracts/UserRegistry.sol": {
    "UserRegistry": {
      "abi": [
        {
          "inputs": [],
          "stateMutability": "nonpayable",
          "type": "constructor"
        },
        {
          "anonymous": false,
          "inputs": [
            {
              "indexed": true,
              "internalType": "string",
              "name": "username",
              "type": "string"
            },
            {
              "indexed": false,
              "internalType": "string",
              "name": "newDidEmberveilDocument",
              "type": "string"
            },
            {
              "indexed": false,
              "internalType": "uint256",
              "name": "timestamp",
              "type": "uint256"
            }
          ],
          "name": "DIDDocumentUpdated",
          "type": "event"
        },
        {
          "anonymous": false,
          "inputs": [
            {
              "indexed": true,
              "internalType": "string",
              "name": "username",
              "type": "string"
            },
            {
              "indexed": false,
              "internalType": "uint256",
              "name": "timestamp",
              "type": "uint256"
            }
          ],
          "name": "UserDeactivated",
          "type": "event"
        },
        {
          "anonymous": false,
          "inputs": [
            {
              "indexed": true,
              "internalType": "string",
              "name": "username",
              "type": "string"
            },
            {
              "indexed": false,
              "internalType": "string",
              "name": "didEmberveilDocument",
              "type": "string"
            },
            {
              "indexed": false,
              "internalType": "string",
              "name": "ed25519PublicKey",
              "type": "string"
            },
            {
              "indexed": false,
              "internalType": "uint256",
              "name": "timestamp",
              "type": "uint256"
            }
          ],
          "name": "UserRegistered",
          "type": "event"
        },
        {
          "inputs": [
            {
              "internalType": "string",
              "name": "username",
              "type": "string"
            }
          ],
          "name": "deactivateUser",
          "outputs": [],
          "stateMutability": "nonpayable",
          "type": "function"
        },
        {
          "inputs": [
            {
              "internalType": "string",
              "name": "username",
              "type": "string"
            }
          ],
          "name": "getDIDDocument",
          "outputs": [
            {
              "internalType": "string",
              "name": "",
              "type": "string"
            }
          ],
          "stateMutability": "view",
          "type": "function"
        },
        {
          "inputs": [
            {
              "internalType": "string",
              "name": "username",
              "type": "string"
            }
          ],
          "name": "getEd25519PublicKey",
          "outputs": [
            {
              "internalType": "string",
              "name": "",
              "type": "string"
            }
          ],
          "stateMutability": "view",
          "type": "function"
        },
        {
          "inputs": [
            {
              "internalType": "string",
              "name": "username",
              "type": "string"
            }
          ],
          "name": "getUserProfile",
          "outputs": [
            {
              "components": [
                {
                  "internalType": "string",
                  "name": "didEmberveilDocument",
                  "type": "string"
                },
                {
                  "internalType": "string",
                  "name": "metadataCID",
                  "type": "string"
                },
                {
                  "internalType": "string",
                  "name": "ed25519PublicKey",
                  "type": "string"
                },
                {
                  "internalType": "string",
                  "name": "passwordDoubleHash",
                  "type": "string"
                },
                {
                  "internalType": "uint256",
                  "name": "registrationTime",
                  "type": "uint256"
                },
                {
                  "internalType": "bool",
                  "name": "isActive",
                  "type": "bool"
                }
              ],
              "internalType": "struct UserRegistry.UserProfile",
              "name": "",
              "type": "tuple"
            }
          ],
          "stateMutability": "view",
          "type": "function"
        },
        {
          "inputs": [
            {
              "internalType": "string",
              "name": "username",
              "type": "string"
            }
          ],
          "name": "isUserActive",
          "outputs": [
            {
              "internalType": "bool",
              "name": "",
              "type": "bool"
            }
          ],
          "stateMutability": "view",
          "type": "function"
        },
        {
          "inputs": [
            {
              "internalType": "string",
              "name": "username",
              "type": "string"
            }
          ],
          "name": "isUsernameAvailable",
          "outputs": [
            {
              "internalType": "bool",
              "name": "",
              "type": "bool"
            }
          ],
          "stateMutability": "view",
          "type": "function"
        },
        {
          "inputs": [],
          "name": "owner",
          "outputs": [
            {
              "internalType": "address",
              "name": "",
              "type": "address"
            }
          ],
          "stateMutability": "view",
          "type": "function"
        },
        {
          "inputs": [
            {
              "internalType": "string",
              "name": "username",
              "type": "string"
            },
            {
              "internalType": "string",
              "name": "didDocument",
              "type": "string"
            },
            {
              "internalType": "string",
              "name": "ed25519PublicKey",
              "type": "string"
            },
            {
              "internalType": "string",
              "name": "passwordDoubleHash",
              "type": "string"
            }
          ],
          "name": "registerUser",
          "outputs": [
            {
              "internalType": "bool",
              "name": "",
              "type": "bool"
            }
          ],
          "stateMutability": "nonpayable",
          "type": "function"
        },
        {
          "inputs": [
            {
              "internalType": "string",
              "name": "",
              "type": "string"
            }
          ],
          "name": "registeredUsernames",
          "outputs": [
            {
              "internalType": "bool",
              "name": "",
              "type": "bool"
            }
          ],
          "stateMutability": "view",
          "type": "function"
        },
        {
          "inputs": [],
          "name": "totalUsers",
          "outputs": [
            {
              "internalType": "uint256",
              "name": "",
              "type": "uint256"
            }
          ],
          "stateMutability": "view",
          "type": "function"
        },
        {
          "inputs": [
            {
              "internalType": "address",
              "name": "newOwner",
              "type": "address"
            }
          ],
          "name": "transferOwnership",
          "outputs": [],
          "stateMutability": "nonpayable",
          "type": "function"
        },
        {
          "inputs": [
            {
              "internalType": "string",
              "name": "username",
              "type": "string"
            },
            {
              "internalType": "string",
              "name": "newDidDocument",
              "type": "string"
            }
          ],
          "name": "updateDIDDocument",
          "outputs": [
            {
              "internalType": "bool",
              "name": "",
              "type": "bool"
            }
          ],
          "stateMutability": "nonpayable",
          "type": "function"
        },
        {
          "inputs": [
            {
              "internalType": "string",
              "name": "username",
              "type": "string"
            },
            {
              "internalType": "string",
              "name": "newCID",
              "type": "string"
            }
          ],
          "name": "updateMetadataCID",
          "outputs": [
            {
              "internalType": "bool",
              "name": "",
              "type": "bool"
            }
          ],
          "stateMutability": "nonpayable",
          "type": "function"
        }
      ],
      "evm": {
        "bytecode": {
          "linkReferences": {},
          "object": "6080806040523461002d57600280546001600160a01b03191633179055600060035561149290816100338239f35b600080fdfe6080604052600436101561001257600080fd5b60003560e01c80630148a54b14610ee15780633afb0e8b14610d17578063784afc4e14610c855780637b46a92a14610bd75780638da5cb5b14610bae57806393e54a56146104ea578063a73e162714610478578063a81203b614610302578063bff1f9e1146102e4578063c03a6aa21461021f578063e097e925146101a7578063f2fde38b146101235763f69c6dec146100ab57600080fd5b3461011e57602036600319011261011e576004356001600160401b03811161011e5760ff60206100e081933690600401611072565b9190600283101580610114575b6100f6906111b3565b82604051938492833781016001815203019020541615604051908152f35b50818311156100ed565b600080fd5b3461011e57602036600319011261011e576004356001600160a01b038181169182900361011e5761015a6002549182163314611423565b8115610170576001600160a01b03191617600255005b60405162461bcd60e51b815260206004820152600f60248201526e496e76616c6964206164647265737360881b6044820152606490fd5b3461011e57602036600319011261011e576004356001600160401b03811161011e5760ff600560206101de81943690600401611072565b91906101ff85604051858482378481878101600181520301902054166112f9565b826040519384928337810160008152030190200154166040519015158152f35b3461011e57602036600319011261011e576004356001600160401b03811161011e5761024f903690600401611072565b9061026560018060a01b03600254163314611423565b61028660ff60405184848237602081868101600181520301902054166112f9565b60056040518383823760208185810160008152030190200160ff1981541690558160405192839283378101600081520390207f5cd658785798b0f9a7fac8c2691da9f9c09d11e6052af9dcef50e30b746779476020604051428152a2005b3461011e57600036600319011261011e576020600354604051908152f35b3461011e5760208060031936011261011e576004356001600160401b03811161011e57610333903690600401611072565b6040519291829061034385611131565b600060a060609687815287858201528760408201528780820152826080820152015261038560ff604051858482378481878101600181520301902054166112f9565b82604051938492833781016000815203019020604051926103a584611131565b6103ae8261133b565b84526104656103bf6001840161133b565b8486019081526103d16002850161133b565b90604087019182526104546103e86003870161133b565b9285890193845260ff600560048901549860808c01998a520154169560a08a01961515875261044361042d8a60c06040519d8e9d8e5251918d015260e08c019061110c565b945194601f1995868c83030160408d015261110c565b915190848a840301908a015261110c565b91519086830301608087015261110c565b915160a084015251151560c08301520390f35b3461011e57602036600319011261011e576004356001600160401b03811161011e573660238201121561011e5760ff6104d460206104c18194369060248160040135910161116d565b81604051938285809451938492016110e9565b8101600181520301902054166040519015158152f35b3461011e57608036600319011261011e576004356001600160401b03811161011e5761051a903690600401611072565b906024356001600160401b03811161011e5761053a903690600401611072565b6044356001600160401b03811161011e57610559903690600401611072565b94906064356001600160401b03811161011e5761057a903690600401611072565b600284101580610ba3575b61058e906111b3565b6105998515156111fe565b60ff60405185898237600186820152602081878101030190205416610b5e5760408803610b095760428103610aaa57604051916105d583611131565b6105e036878961116d565b8352604051918260208101106001600160401b0360208501111761092357826020610629940160405260008152602085015261061d368b8761116d565b6040850152369161116d565b6060820152426080820152600160a082015260405183878237602081858101600081520301902081518051906001600160401b03821161092357819061067982610673865461124a565b86611284565b602090601f8311600114610a3e57600092610a33575b50508160011b916000199060031b1c19161781555b60208201518051906001600160401b0382116109235781906106d6826106cd600187015461124a565b60018701611284565b602090601f83116001146109c1576000926109b6575b50508160011b916000199060031b1c19161760018201555b60408201518051906001600160401b0382116109235781906107368261072d600287015461124a565b60028701611284565b602090601f831160011461094457600092610939575b50508160011b916000199060031b1c19161760028201555b60608201518051906001600160401b038211610923576107948261078b600386015461124a565b60038601611284565b602090601f83116001146108ae57918060a094926005946000926108a3575b50508160011b916000199060031b1c19161760038201555b608084015160048201550191015115159060ff199160ff838354169116179055600160405184888237602081868101848152030190209182541617905560035491600019831461088d577f1c66755634ab907c3bd19a48c068cecbd8c6bd23426e649d6482ea5e54e8e00095600161087994016003558160405192839283378101600081520390209561086b6040519586956060875260608701916112d8565b9184830360208601526112d8565b4260408301520390a2602060405160018152f35b634e487b7160e01b600052601160045260246000fd5b015190508c806107b3565b906003840160005260206000209160005b601f198516811061090b57509260a0949260019260059583601f198116106108f2575b505050811b0160038201556107cb565b015160001960f88460031b161c191690558c80806108e2565b919260206001819286850151815501940192016108bf565b634e487b7160e01b600052604160045260246000fd5b015190508a8061074c565b9250600284016000526020600020906000935b601f198416851061099b576001945083601f19811610610982575b505050811b016002820155610764565b015160001960f88460031b161c191690558a8080610972565b81810151835560209485019460019093019290910190610957565b015190508a806106ec565b9250600184016000526020600020906000935b601f1984168510610a18576001945083601f198116106109ff575b505050811b016001820155610704565b015160001960f88460031b161c191690558a80806109ef565b818101518355602094850194600190930192909101906109d4565b015190508a8061068f565b9250836000526020600020906000935b601f1984168510610a8f576001945083601f19811610610a76575b505050811b0181556106a4565b015160001960f88460031b161c191690558a8080610a69565b81810151835560209485019460019093019290910190610a4e565b60405162461bcd60e51b815260206004820152603160248201527f70617373776f7264446f75626c6548617368206d75737420626520363620636860448201527061727320283078202b203634206865782960781b6064820152608490fd5b60405162461bcd60e51b815260206004820152602760248201527f45643235353139207075626c6963206b6579206d7573742062652036342068656044820152667820636861727360c81b6064820152608490fd5b60405162461bcd60e51b815260206004820152601b60248201527f557365726e616d6520616c7265616479207265676973746572656400000000006044820152606490fd5b506020841115610585565b3461011e57600036600319011261011e576002546040516001600160a01b039091168152602090f35b3461011e5760208060031936011261011e576004356001600160401b03811161011e57600282610c0e610c6c933690600401611072565b9190610c3060ff604051858482378481878101600181520301902054166112f9565b610c5360ff600560405186858237858188810160008152030190200154166113e1565b826040519384928337810160008152030190200161133b565b90610c8160405192828493845283019061110c565b0390f35b3461011e5760208060031936011261011e576004356001600160401b03811161011e5781610cba610c6c923690600401611072565b9190610cdc60ff604051858482378481878101600181520301902054166112f9565b610cff60ff600560405186858237858188810160008152030190200154166113e1565b8260405193849283378101600081520301902061133b565b3461011e57610d253661109f565b610d3e60018060a0969594961b03600254163314611423565b610d498115156111fe565b604051938284863782850192610d7160ff876001968781526020998a910301902054166112f9565b610d9460ff600560405184898237898186810160008152030190200154166113e1565b6040518186823786818381016000815203019020946001600160401b03841161092357610dcb84610dc5885461124a565b88611284565b600095601f8511600114610e5e57847fcb7215aca00031979d292f65058fda69c4ce6ea5b34c949b565b74522a1ce358959697600091610e53575b50600019600388901b1c191686881b1790555b81604051928392833781016000815203902092610e436040519283926040845260408401916112d8565b42878301520390a2604051908152f35b905084013589610e06565b601f1985169681600052886000209060005b8a8a8210610ecd575050867fcb7215aca00031979d292f65058fda69c4ce6ea5b34c949b565b74522a1ce35897989910610eb3575b50508686811b019055610e19565b850135600019600389901b60f8161c191690558880610ea5565b878301358455928901929182019101610e70565b3461011e57610eef3661109f565b610f0860018060a0969495961b03600254163314611423565b604051938083863780850192610f3060ff876001968781526020998a910301902054166112f9565b82156110375790858492610f5d60ff600560405186858237858188810160008152030190200154166113e1565b8260405193849283378101600081520301902001906001600160401b03811161092357610f9481610f8e845461124a565b84611284565b6000601f8211600114610fd45781929394600092610fc9575b5050600019600383901b1c191690831b1790555b604051908152f35b013590508580610fad565b601f1982169483600052866000209160005b8888821061102357505083869796959610611009575b505050811b019055610fc1565b0135600019600384901b60f8161c19169055858080610ffc565b838301358555938701939182019101610fe6565b60405162461bcd60e51b81526004810187905260136024820152724349442063616e6e6f7420626520656d70747960681b6044820152606490fd5b9181601f8401121561011e578235916001600160401b03831161011e576020838186019501011161011e57565b604060031982011261011e576001600160401b039160043583811161011e57826110cb91600401611072565b9390939260243591821161011e576110e591600401611072565b9091565b60005b8381106110fc5750506000910152565b81810151838201526020016110ec565b90602091611125815180928185528580860191016110e9565b601f01601f1916010190565b60c081019081106001600160401b0382111761092357604052565b90601f801991011681019081106001600160401b0382111761092357604052565b9291926001600160401b0382116109235760405191611196601f8201601f19166020018461114c565b82948184528183011161011e578281602093846000960137010152565b156111ba57565b606460405162461bcd60e51b815260206004820152602060248201527f557365726e616d65206d75737420626520322d333220636861726163746572736044820152fd5b1561120557565b60405162461bcd60e51b815260206004820152601c60248201527f44494420646f63756d656e742063616e6e6f7420626520656d707479000000006044820152606490fd5b90600182811c9216801561127a575b602083101461126457565b634e487b7160e01b600052602260045260246000fd5b91607f1691611259565b90601f811161129257505050565b600091825260208220906020601f850160051c830194106112ce575b601f0160051c01915b8281106112c357505050565b8181556001016112b7565b90925082906112ae565b908060209392818452848401376000828201840152601f01601f1916010190565b1561130057565b60405162461bcd60e51b8152602060048201526013602482015272155cd95c88191bd95cc81b9bdd08195e1a5cdd606a1b6044820152606490fd5b906040519182600082549261134f8461124a565b9081845260019485811690816000146113be575060011461137b575b50506113799250038361114c565b565b9093915060005260209081600020936000915b8183106113a65750506113799350820101388061136b565b8554888401850152948501948794509183019161138e565b91505061137994506020925060ff191682840152151560051b820101388061136b565b156113e857565b60405162461bcd60e51b8152602060048201526013602482015272155cd95c881a5cc819195858dd1a5d985d1959606a1b6044820152606490fd5b1561142a57565b60405162461bcd60e51b815260206004820152600a60248201526927b7363c9037bbb732b960b11b6044820152606490fdfea2646970667358221220af4bde77781156396d2e02e25772287145cb2a253e2c8758772a8e50390cf29b64736f6c63430008130033",
          "opcodes": "PUSH1 0x80 DUP1 PUSH1 0x40 MSTORE CALLVALUE PUSH2 0x2D JUMPI PUSH1 0x2 DUP1 SLOAD PUSH1 0x1 PUSH1 0x1 PUSH1 0xA0 SHL SUB NOT AND CALLER OR SWAP1 SSTORE PUSH1 0x0 PUSH1 0x3 SSTORE PUSH2 0x1492 SWAP1 DUP2 PUSH2 0x33 DUP3 CODECOPY RETURN JUMPDEST PUSH1 0x0 DUP1 REVERT INVALID PUSH1 0x80 PUSH1 0x40 MSTORE PUSH1 0x4 CALLDATASIZE LT ISZERO PUSH2 0x12 JUMPI PUSH1 0x0 DUP1 REVERT JUMPDEST PUSH1 0x0 CALLDATALOAD PUSH1 0xE0 SHR DUP1 PUSH4 0x148A54B EQ PUSH2 0xEE1 JUMPI DUP1 PUSH4 0x3AFB0E8B EQ PUSH2 0xD17 JUMPI DUP1 PUSH4 0x784AFC4E EQ PUSH2 0xC85 JUMPI DUP1 PUSH4 0x7B46A92A EQ PUSH2 0xBD7 JUMPI DUP1 PUSH4 0x8DA5CB5B EQ PUSH2 0xBAE JUMPI DUP1 PUSH4 0x93E54A56 EQ PUSH2 0x4EA JUMPI DUP1 PUSH4 0xA73E1627 EQ PUSH2 0x478 JUMPI DUP1 PUSH4 0xA81203B6 EQ PUSH2 0x302 JUMPI DUP1 PUSH4 0xBFF1F9E1 EQ PUSH2 0x2E4 JUMPI DUP1 PUSH4 0xC03A6AA2 EQ PUSH2 0x21F JUMPI DUP1 PUSH4 0xE097E925 EQ PUSH2 0x1A7 JUMPI DUP1 PUSH4 0xF2FDE38B EQ PUSH2 0x123 JUMPI PUSH4 0xF69C6DEC EQ PUSH2 0xAB JUMPI PUSH1 0x0 DUP1 REVERT JUMPDEST CALLVALUE PUSH2 0x11E JUMPI PUSH1 0x20 CALLDATASIZE PUSH1 0x3 NOT ADD SLT PUSH2 0x11E JUMPI PUSH1 0x4 CALLDATALOAD PUSH1 0x1 PUSH1 0x1 PUSH1 0x40 SHL SUB DUP2 GT PUSH2 0x11E JUMPI PUSH1 0xFF PUSH1 0x20 PUSH2 0xE0 DUP2 SWAP4 CALLDATASIZE SWAP1 PUSH1 0x4 ADD PUSH2 0x1072 JUMP JUMPDEST SWAP2 SWAP1 PUSH1 0x2 DUP4 LT ISZERO DUP1 PUSH2 0x114 JUMPI JUMPDEST PUSH2 0xF6 SWAP1 PUSH2 0x11B3 JUMP JUMPDEST DUP3 PUSH1 0x40 MLOAD SWAP4 DUP5 SWAP3 DUP4 CALLDATACOPY DUP2 ADD PUSH1 0x1 DUP2 MSTORE SUB ADD SWAP1 KECCAK256 SLOAD AND ISZERO PUSH1 0x40 MLOAD SWAP1 DUP2 MSTORE RETURN JUMPDEST POP DUP2 DUP4 GT ISZERO PUSH2 0xED JUMP JUMPDEST PUSH1 0x0 DUP1 REVERT JUMPDEST CALLVALUE PUSH2 0x11E JUMPI PUSH1 0x20 CALLDATASIZE PUSH1 0x3 NOT ADD SLT PUSH2 0x11E JUMPI PUSH1 0x4 CALLDATALOAD PUSH1 0x1 PUSH1 0x1 PUSH1 0xA0 SHL SUB DUP2 DUP2 AND SWAP2 DUP3 SWAP1 SUB PUSH2 0x11E JUMPI PUSH2 0x15A PUSH1 0x2 SLOAD SWAP2 DUP3 AND CALLER EQ PUSH2 0x1423 JUMP JUMPDEST DUP2 ISZERO PUSH2 0x170 JUMPI PUSH1 0x1 PUSH1 0x1 PUSH1 0xA0 SHL SUB NOT AND OR PUSH1 0x2 SSTORE STOP JUMPDEST PUSH1 0x40 MLOAD PUSH3 0x461BCD PUSH1 0xE5 SHL DUP2 MSTORE PUSH1 0x20 PUSH1 0x4 DUP3 ADD MSTORE PUSH1 0xF PUSH1 0x24 DUP3 ADD MSTORE PUSH15 0x496E76616C69642061646472657373 PUSH1 0x88 SHL PUSH1 0x44 DUP3 ADD MSTORE PUSH1 0x64 SWAP1 REVERT JUMPDEST CALLVALUE PUSH2 0x11E JUMPI PUSH1 0x20 CALLDATASIZE PUSH1 0x3 NOT ADD SLT PUSH2 0x11E JUMPI PUSH1 0x4 CALLDATALOAD PUSH1 0x1 PUSH1 0x1 PUSH1 0x40 SHL SUB DUP2 GT PUSH2 0x11E JUMPI PUSH1 0xFF PUSH1 0x5 PUSH1 0x20 PUSH2 0x1DE DUP2 SWAP5 CALLDATASIZE SWAP1 PUSH1 0x4 ADD PUSH2 0x1072 JUMP JUMPDEST SWAP2 SWAP1 PUSH2 0x1FF DUP6 PUSH1 0x40 MLOAD DUP6 DUP5 DUP3 CALLDATACOPY DUP5 DUP2 DUP8 DUP2 ADD PUSH1 0x1 DUP2 MSTORE SUB ADD SWAP1 KECCAK256 SLOAD AND PUSH2 0x12F9 JUMP JUMPDEST DUP3 PUSH1 0x40 MLOAD SWAP4 DUP5 SWAP3 DUP4 CALLDATACOPY DUP2 ADD PUSH1 0x0 DUP2 MSTORE SUB ADD SWAP1 KECCAK256 ADD SLOAD AND PUSH1 0x40 MLOAD SWAP1 ISZERO ISZERO DUP2 MSTORE RETURN JUMPDEST CALLVALUE PUSH2 0x11E JUMPI PUSH1 0x20 CALLDATASIZE PUSH1 0x3 NOT ADD SLT PUSH2 0x11E JUMPI PUSH1 0x4 CALLDATALOAD PUSH1 0x1 PUSH1 0x1 PUSH1 0x40 SHL SUB DUP2 GT PUSH2 0x11E JUMPI PUSH2 0x24F SWAP1 CALLDATASIZE SWAP1 PUSH1 0x4 ADD PUSH2 0x1072 JUMP JUMPDEST SWAP1 PUSH2 0x265 PUSH1 0x1 DUP1 PUSH1 0xA0 SHL SUB PUSH1 0x2 SLOAD AND CALLER EQ PUSH2 0x1423 JUMP JUMPDEST PUSH2 0x286 PUSH1 0xFF PUSH1 0x40 MLOAD DUP5 DUP5 DUP3 CALLDATACOPY PUSH1 0x20 DUP2 DUP7 DUP2 ADD PUSH1 0x1 DUP2 MSTORE SUB ADD SWAP1 KECCAK256 SLOAD AND PUSH2 0x12F9 JUMP JUMPDEST PUSH1 0x5 PUSH1 0x40 MLOAD DUP4 DUP4 DUP3 CALLDATACOPY PUSH1 0x20 DUP2 DUP6 DUP2 ADD PUSH1 0x0 DUP2 MSTORE SUB ADD SWAP1 KECCAK256 ADD PUSH1 0xFF NOT DUP2 SLOAD AND SWAP1 SSTORE DUP2 PUSH1 0x40 MLOAD SWAP3 DUP4 SWAP3 DUP4 CALLDATACOPY DUP2 ADD PUSH1 0x0 DUP2 MSTORE SUB SWAP1 KECCAK256 PUSH32 0x5CD658785798B0F9A7FAC8C2691DA9F9C09D11E6052AF9DCEF50E30B74677947 PUSH1 0x20 PUSH1 0x40 MLOAD TIMESTAMP DUP2 MSTORE LOG2 STOP JUMPDEST CALLVALUE PUSH2 0x11E JUMPI PUSH1 0x0 CALLDATASIZE PUSH1 0x3 NOT ADD SLT PUSH2 0x11E JUMPI PUSH1 0x20 PUSH1 0x3 SLOAD PUSH1 0x40 MLOAD SWAP1 DUP2 MSTORE RETURN JUMPDEST CALLVALUE PUSH2 0x11E JUMPI PUSH1 0x20 DUP1 PUSH1 0x3 NOT CALLDATASIZE ADD SLT PUSH2 0x11E JUMPI PUSH1 0x4 CALLDATALOAD PUSH1 0x1 PUSH1 0x1 PUSH1 0x40 SHL SUB DUP2 GT PUSH2 0x11E JUMPI PUSH2 0x333 SWAP1 CALLDATASIZE SWAP1 PUSH1 0x4 ADD PUSH2 0x1072 JUMP JUMPDEST PUSH1 0x40 MLOAD SWAP3 SWAP2 DUP3 SWAP1 PUSH2 0x343 DUP6 PUSH2 0x1131 JUMP JUMPDEST PUSH1 0x0 PUSH1 0xA0 PUSH1 0x60 SWAP7 DUP8 DUP2 MSTORE DUP8 DUP6 DUP3 ADD MSTORE DUP8 PUSH1 0x40 DUP3 ADD MSTORE DUP8 DUP1 DUP3 ADD MSTORE DUP3 PUSH1 0x80 DUP3 ADD MSTORE ADD MSTORE PUSH2 0x385 PUSH1 0xFF PUSH1 0x40 MLOAD DUP6 DUP5 DUP3 CALLDATACOPY DUP5 DUP2 DUP8 DUP2 ADD PUSH1 0x1 DUP2 MSTORE SUB ADD SWAP1 KECCAK256 SLOAD AND PUSH2 0x12F9 JUMP JUMPDEST DUP3 PUSH1 0x40 MLOAD SWAP4 DUP5 SWAP3 DUP4 CALLDATACOPY DUP2 ADD PUSH1 0x0 DUP2 MSTORE SUB ADD SWAP1 KECCAK256 PUSH1 0x40 MLOAD SWAP3 PUSH2 0x3A5 DUP5 PUSH2 0x1131 JUMP JUMPDEST PUSH2 0x3AE DUP3 PUSH2 0x133B JUMP JUMPDEST DUP5 MSTORE PUSH2 0x465 PUSH2 0x3BF PUSH1 0x1 DUP5 ADD PUSH2 0x133B JUMP JUMPDEST DUP5 DUP7 ADD SWAP1 DUP2 MSTORE PUSH2 0x3D1 PUSH1 0x2 DUP6 ADD PUSH2 0x133B JUMP JUMPDEST SWAP1 PUSH1 0x40 DUP8 ADD SWAP2 DUP3 MSTORE PUSH2 0x454 PUSH2 0x3E8 PUSH1 0x3 DUP8 ADD PUSH2 0x133B JUMP JUMPDEST SWAP3 DUP6 DUP10 ADD SWAP4 DUP5 MSTORE PUSH1 0xFF PUSH1 0x5 PUSH1 0x4 DUP10 ADD SLOAD SWAP9 PUSH1 0x80 DUP13 ADD SWAP10 DUP11 MSTORE ADD SLOAD AND SWAP6 PUSH1 0xA0 DUP11 ADD SWAP7 ISZERO ISZERO DUP8 MSTORE PUSH2 0x443 PUSH2 0x42D DUP11 PUSH1 0xC0 PUSH1 0x40 MLOAD SWAP14 DUP15 SWAP14 DUP15 MSTORE MLOAD SWAP2 DUP14 ADD MSTORE PUSH1 0xE0 DUP13 ADD SWAP1 PUSH2 0x110C JUMP JUMPDEST SWAP5 MLOAD SWAP5 PUSH1 0x1F NOT SWAP6 DUP7 DUP13 DUP4 SUB ADD PUSH1 0x40 DUP14 ADD MSTORE PUSH2 0x110C JUMP JUMPDEST SWAP2 MLOAD SWAP1 DUP5 DUP11 DUP5 SUB ADD SWAP1 DUP11 ADD MSTORE PUSH2 0x110C JUMP JUMPDEST SWAP2 MLOAD SWAP1 DUP7 DUP4 SUB ADD PUSH1 0x80 DUP8 ADD MSTORE PUSH2 0x110C JUMP JUMPDEST SWAP2 MLOAD PUSH1 0xA0 DUP5 ADD MSTORE MLOAD ISZERO ISZERO PUSH1 0xC0 DUP4 ADD MSTORE SUB SWAP1 RETURN JUMPDEST CALLVALUE PUSH2 0x11E JUMPI PUSH1 0x20 CALLDATASIZE PUSH1 0x3 NOT ADD SLT PUSH2 0x11E JUMPI PUSH1 0x4 CALLDATALOAD PUSH1 0x1 PUSH1 0x1 PUSH1 0x40 SHL SUB DUP2 GT PUSH2 0x11E JUMPI CALLDATASIZE PUSH1 0x23 DUP3 ADD SLT ISZERO PUSH2 0x11E JUMPI PUSH1 0xFF PUSH2 0x4D4 PUSH1 0x20 PUSH2 0x4C1 DUP2 SWAP5 CALLDATASIZE SWAP1 PUSH1 0x24 DUP2 PUSH1 0x4 ADD CALLDATALOAD SWAP2 ADD PUSH2 0x116D JUMP JUMPDEST DUP2 PUSH1 0x40 MLOAD SWAP4 DUP3 DUP6 DUP1 SWAP5 MLOAD SWAP4 DUP5 SWAP3 ADD PUSH2 0x10E9 JUMP JUMPDEST DUP2 ADD PUSH1 0x1 DUP2 MSTORE SUB ADD SWAP1 KECCAK256 SLOAD AND PUSH1 0x40 MLOAD SWAP1 ISZERO ISZERO DUP2 MSTORE RETURN JUMPDEST CALLVALUE PUSH2 0x11E JUMPI PUSH1 0x80 CALLDATASIZE PUSH1 0x3 NOT ADD SLT PUSH2 0x11E JUMPI PUSH1 0x4 CALLDATALOAD PUSH1 0x1 PUSH1 0x1 PUSH1 0x40 SHL SUB DUP2 GT PUSH2 0x11E JUMPI PUSH2 0x51A SWAP1 CALLDATASIZE SWAP1 PUSH1 0x4 ADD PUSH2 0x1072 JUMP JUMPDEST SWAP1 PUSH1 0x24 CALLDATALOAD PUSH1 0x1 PUSH1 0x1 PUSH1 0x40 SHL SUB DUP2 GT PUSH2 0x11E JUMPI PUSH2 0x53A SWAP1 CALLDATASIZE SWAP1 PUSH1 0x4 ADD PUSH2 0x1072 JUMP JUMPDEST PUSH1 0x44 CALLDATALOAD PUSH1 0x1 PUSH1 0x1 PUSH1 0x40 SHL SUB DUP2 GT PUSH2 0x11E JUMPI PUSH2 0x559 SWAP1 CALLDATASIZE SWAP1 PUSH1 0x4 ADD PUSH2 0x1072 JUMP JUMPDEST SWAP5 SWAP1 PUSH1 0x64 CALLDATALOAD PUSH1 0x1 PUSH1 0x1 PUSH1 0x40 SHL SUB DUP2 GT PUSH2 0x11E JUMPI PUSH2 0x57A SWAP1 CALLDATASIZE SWAP1 PUSH1 0x4 ADD PUSH2 0x1072 JUMP JUMPDEST PUSH1 0x2 DUP5 LT ISZERO DUP1 PUSH2 0xBA3 JUMPI JUMPDEST PUSH2 0x58E SWAP1 PUSH2 0x11B3 JUMP JUMPDEST PUSH2 0x599 DUP6 ISZERO ISZERO PUSH2 0x11FE JUMP JUMPDEST PUSH1 0xFF PUSH1 0x40 MLOAD DUP6 DUP10 DUP3 CALLDATACOPY PUSH1 0x1 DUP7 DUP3 ADD MSTORE PUSH1 0x20 DUP2 DUP8 DUP2 ADD SUB ADD SWAP1 KECCAK256 SLOAD AND PUSH2 0xB5E JUMPI PUSH1 0x40 DUP9 SUB PUSH2 0xB09 JUMPI PUSH1 0x42 DUP2 SUB PUSH2 0xAAA JUMPI PUSH1 0x40 MLOAD SWAP2 PUSH2 0x5D5 DUP4 PUSH2 0x1131 JUMP JUMPDEST PUSH2 0x5E0 CALLDATASIZE DUP8 DUP10 PUSH2 0x116D JUMP JUMPDEST DUP4 MSTORE PUSH1 0x40 MLOAD SWAP2 DUP3 PUSH1 0x20 DUP2 ADD LT PUSH1 0x1 PUSH1 0x1 PUSH1 0x40 SHL SUB PUSH1 0x20 DUP6 ADD GT OR PUSH2 0x923 JUMPI DUP3 PUSH1 0x20 PUSH2 0x629 SWAP5 ADD PUSH1 0x40 MSTORE PUSH1 0x0 DUP2 MSTORE PUSH1 0x20 DUP6 ADD MSTORE PUSH2 0x61D CALLDATASIZE DUP12 DUP8 PUSH2 0x116D JUMP JUMPDEST PUSH1 0x40 DUP6 ADD MSTORE CALLDATASIZE SWAP2 PUSH2 0x116D JUMP JUMPDEST PUSH1 0x60 DUP3 ADD MSTORE TIMESTAMP PUSH1 0x80 DUP3 ADD MSTORE PUSH1 0x1 PUSH1 0xA0 DUP3 ADD MSTORE PUSH1 0x40 MLOAD DUP4 DUP8 DUP3 CALLDATACOPY PUSH1 0x20 DUP2 DUP6 DUP2 ADD PUSH1 0x0 DUP2 MSTORE SUB ADD SWAP1 KECCAK256 DUP2 MLOAD DUP1 MLOAD SWAP1 PUSH1 0x1 PUSH1 0x1 PUSH1 0x40 SHL SUB DUP3 GT PUSH2 0x923 JUMPI DUP2 SWAP1 PUSH2 0x679 DUP3 PUSH2 0x673 DUP7 SLOAD PUSH2 0x124A JUMP JUMPDEST DUP7 PUSH2 0x1284 JUMP JUMPDEST PUSH1 0x20 SWAP1 PUSH1 0x1F DUP4 GT PUSH1 0x1 EQ PUSH2 0xA3E JUMPI PUSH1 0x0 SWAP3 PUSH2 0xA33 JUMPI JUMPDEST POP POP DUP2 PUSH1 0x1 SHL SWAP2 PUSH1 0x0 NOT SWAP1 PUSH1 0x3 SHL SHR NOT AND OR DUP2 SSTORE JUMPDEST PUSH1 0x20 DUP3 ADD MLOAD DUP1 MLOAD SWAP1 PUSH1 0x1 PUSH1 0x1 PUSH1 0x40 SHL SUB DUP3 GT PUSH2 0x923 JUMPI DUP2 SWAP1 PUSH2 0x6D6 DUP3 PUSH2 0x6CD PUSH1 0x1 DUP8 ADD SLOAD PUSH2 0x124A JUMP JUMPDEST PUSH1 0x1 DUP8 ADD PUSH2 0x1284 JUMP JUMPDEST PUSH1 0x20 SWAP1 PUSH1 0x1F DUP4 GT PUSH1 0x1 EQ PUSH2 0x9C1 JUMPI PUSH1 0x0 SWAP3 PUSH2 0x9B6 JUMPI JUMPDEST POP POP DUP2 PUSH1 0x1 SHL SWAP2 PUSH1 0x0 NOT SWAP1 PUSH1 0x3 SHL SHR NOT AND OR PUSH1 0x1 DUP3 ADD SSTORE JUMPDEST PUSH1 0x40 DUP3 ADD MLOAD DUP1 MLOAD SWAP1 PUSH1 0x1 PUSH1 0x1 PUSH1 0x40 SHL SUB DUP3 GT PUSH2 0x923 JUMPI DUP2 SWAP1 PUSH2 0x736 DUP3 PUSH2 0x72D PUSH1 0x2 DUP8 ADD SLOAD PUSH2 0x124A JUMP JUMPDEST PUSH1 0x2 DUP8 ADD PUSH2 0x1284 JUMP JUMPDEST PUSH1 0x20 SWAP1 PUSH1 0x1F DUP4 GT PUSH1 0x1 EQ PUSH2 0x944 JUMPI PUSH1 0x0 SWAP3 PUSH2 0x939 JUMPI JUMPDEST POP POP DUP2 PUSH1 0x1 SHL SWAP2 PUSH1 0x0 NOT SWAP1 PUSH1 0x3 SHL SHR NOT AND OR PUSH1 0x2 DUP3 ADD SSTORE JUMPDEST PUSH1 0x60 DUP3 ADD MLOAD DUP1 MLOAD SWAP1 PUSH1 0x1 PUSH1 0x1 PUSH1 0x40 SHL SUB DUP3 GT PUSH2 0x923 JUMPI PUSH2 0x794 DUP3 PUSH2 0x78B PUSH1 0x3 DUP7 ADD SLOAD PUSH2 0x124A JUMP JUMPDEST PUSH1 0x3 DUP7 ADD PUSH2 0x1284 JUMP JUMPDEST PUSH1 0x20 SWAP1 PUSH1 0x1F DUP4 GT PUSH1 0x1 EQ PUSH2 0x8AE JUMPI SWAP2 DUP1 PUSH1 0xA0 SWAP5 SWAP3 PUSH1 0x5 SWAP5 PUSH1 0x0 SWAP3 PUSH2 0x8A3 JUMPI JUMPDEST POP POP DUP2 PUSH1 0x1 SHL SWAP2 PUSH1 0x0 NOT SWAP1 PUSH1 0x3 SHL SHR NOT AND OR PUSH1 0x3 DUP3 ADD SSTORE JUMPDEST PUSH1 0x80 DUP5 ADD MLOAD PUSH1 0x4 DUP3 ADD SSTORE ADD SWAP2 ADD MLOAD ISZERO ISZERO SWAP1 PUSH1 0xFF NOT SWAP2 PUSH1 0xFF DUP4 DUP4 SLOAD AND SWAP2 AND OR SWAP1 SSTORE PUSH1 0x1 PUSH1 0x40 MLOAD DUP5 DUP9 DUP3 CALLDATACOPY PUSH1 0x20 DUP2 DUP7 DUP2 ADD DUP5 DUP2 MSTORE SUB ADD SWAP1 KECCAK256 SWAP2 DUP3 SLOAD AND OR SWAP1 SSTORE PUSH1 0x3 SLOAD SWAP2 PUSH1 0x0 NOT DUP4 EQ PUSH2 0x88D JUMPI PUSH32 0x1C66755634AB907C3BD19A48C068CECBD8C6BD23426E649D6482EA5E54E8E000 SWAP6 PUSH1 0x1 PUSH2 0x879 SWAP5 ADD PUSH1 0x3 SSTORE DUP2 PUSH1 0x40 MLOAD SWAP3 DUP4 SWAP3 DUP4 CALLDATACOPY DUP2 ADD PUSH1 0x0 DUP2 MSTORE SUB SWAP1 KECCAK256 SWAP6 PUSH2 0x86B PUSH1 0x40 MLOAD SWAP6 DUP7 SWAP6 PUSH1 0x60 DUP8 MSTORE PUSH1 0x60 DUP8 ADD SWAP2 PUSH2 0x12D8 JUMP JUMPDEST SWAP2 DUP5 DUP4 SUB PUSH1 0x20 DUP7 ADD MSTORE PUSH2 0x12D8 JUMP JUMPDEST TIMESTAMP PUSH1 0x40 DUP4 ADD MSTORE SUB SWAP1 LOG2 PUSH1 0x20 PUSH1 0x40 MLOAD PUSH1 0x1 DUP2 MSTORE RETURN JUMPDEST PUSH4 0x4E487B71 PUSH1 0xE0 SHL PUSH1 0x0 MSTORE PUSH1 0x11 PUSH1 0x4 MSTORE PUSH1 0x24 PUSH1 0x0 REVERT JUMPDEST ADD MLOAD SWAP1 POP DUP13 DUP1 PUSH2 0x7B3 JUMP JUMPDEST SWAP1 PUSH1 0x3 DUP5 ADD PUSH1 0x0 MSTORE PUSH1 0x20 PUSH1 0x0 KECCAK256 SWAP2 PUSH1 0x0 JUMPDEST PUSH1 0x1F NOT DUP6 AND DUP2 LT PUSH2 0x90B JUMPI POP SWAP3 PUSH1 0xA0 SWAP5 SWAP3 PUSH1 0x1 SWAP3 PUSH1 0x5 SWAP6 DUP4 PUSH1 0x1F NOT DUP2 AND LT PUSH2 0x8F2 JUMPI JUMPDEST POP POP POP DUP2 SHL ADD PUSH1 0x3 DUP3 ADD SSTORE PUSH2 0x7CB JUMP JUMPDEST ADD MLOAD PUSH1 0x0 NOT PUSH1 0xF8 DUP5 PUSH1 0x3 SHL AND SHR NOT AND SWAP1 SSTORE DUP13 DUP1 DUP1 PUSH2 0x8E2 JUMP JUMPDEST SWAP2 SWAP3 PUSH1 0x20 PUSH1 0x1 DUP2 SWAP3 DUP7 DUP6 ADD MLOAD DUP2 SSTORE ADD SWAP5 ADD SWAP3 ADD PUSH2 0x8BF JUMP JUMPDEST PUSH4 0x4E487B71 PUSH1 0xE0 SHL PUSH1 0x0 MSTORE PUSH1 0x41 PUSH1 0x4 MSTORE PUSH1 0x24 PUSH1 0x0 REVERT JUMPDEST ADD MLOAD SWAP1 POP DUP11 DUP1 PUSH2 0x74C JUMP JUMPDEST SWAP3 POP PUSH1 0x2 DUP5 ADD PUSH1 0x0 MSTORE PUSH1 0x20 PUSH1 0x0 KECCAK256 SWAP1 PUSH1 0x0 SWAP4 JUMPDEST PUSH1 0x1F NOT DUP5 AND DUP6 LT PUSH2 0x99B JUMPI PUSH1 0x1 SWAP5 POP DUP4 PUSH1 0x1F NOT DUP2 AND LT PUSH2 0x982 JUMPI JUMPDEST POP POP POP DUP2 SHL ADD PUSH1 0x2 DUP3 ADD SSTORE PUSH2 0x764 JUMP JUMPDEST ADD MLOAD PUSH1 0x0 NOT PUSH1 0xF8 DUP5 PUSH1 0x3 SHL AND SHR NOT AND SWAP1 SSTORE DUP11 DUP1 DUP1 PUSH2 0x972 JUMP JUMPDEST DUP2 DUP2 ADD MLOAD DUP4 SSTORE PUSH1 0x20 SWAP5 DUP6 ADD SWAP5 PUSH1 0x1 SWAP1 SWAP4 ADD SWAP3 SWAP1 SWAP2 ADD SWAP1 PUSH2 0x957 JUMP JUMPDEST ADD MLOAD SWAP1 POP DUP11 DUP1 PUSH2 0x6EC JUMP JUMPDEST SWAP3 POP PUSH1 0x1 DUP5 ADD PUSH1 0x0 MSTORE PUSH1 0x20 PUSH1 0x0 KECCAK256 SWAP1 PUSH1 0x0 SWAP4 JUMPDEST PUSH1 0x1F NOT DUP5 AND DUP6 LT PUSH2 0xA18 JUMPI PUSH1 0x1 SWAP5 POP DUP4 PUSH1 0x1F NOT DUP2 AND LT PUSH2 0x9FF JUMPI JUMPDEST POP POP POP DUP2 SHL ADD PUSH1 0x1 DUP3 ADD SSTORE PUSH2 0x704 JUMP JUMPDEST ADD MLOAD PUSH1 0x0 NOT PUSH1 0xF8 DUP5 PUSH1 0x3 SHL AND SHR NOT AND SWAP1 SSTORE DUP11 DUP1 DUP1 PUSH2 0x9EF JUMP JUMPDEST DUP2 DUP2 ADD MLOAD DUP4 SSTORE PUSH1 0x20 SWAP5 DUP6 ADD SWAP5 PUSH1 0x1 SWAP1 SWAP4 ADD SWAP3 SWAP1 SWAP2 ADD SWAP1 PUSH2 0x9D4 JUMP JUMPDEST ADD MLOAD SWAP1 POP DUP11 DUP1 PUSH2 0x68F JUMP JUMPDEST SWAP3 POP DUP4 PUSH1 0x0 MSTORE PUSH1 0x20 PUSH1 0x0 KECCAK256 SWAP1 PUSH1 0x0 SWAP4 JUMPDEST PUSH1 0x1F NOT DUP5 AND DUP6 LT PUSH2 0xA8F JUMPI PUSH1 0x1 SWAP5 POP DUP4 PUSH1 0x1F NOT DUP2 AND LT PUSH2 0xA76 JUMPI JUMPDEST POP POP POP DUP2 SHL ADD DUP2 SSTORE PUSH2 0x6A4 JUMP JUMPDEST ADD MLOAD PUSH1 0x0 NOT PUSH1 0xF8 DUP5 PUSH1 0x3 SHL AND SHR NOT AND SWAP1 SSTORE DUP11 DUP1 DUP1 PUSH2 0xA69 JUMP JUMPDEST DUP2 DUP2 ADD MLOAD DUP4 SSTORE PUSH1 0x20 SWAP5 DUP6 ADD SWAP5 PUSH1 0x1 SWAP1 SWAP4 ADD SWAP3 SWAP1 SWAP2 ADD SWAP1 PUSH2 0xA4E JUMP JUMPDEST PUSH1 0x40 MLOAD PUSH3 0x461BCD PUSH1 0xE5 SHL DUP2 MSTORE PUSH1 0x20 PUSH1 0x4 DUP3 ADD MSTORE PUSH1 0x31 PUSH1 0x24 DUP3 ADD MSTORE PUSH32 0x70617373776F7264446F75626C6548617368206D757374206265203636206368 PUSH1 0x44 DUP3 ADD MSTORE PUSH17 0x61727320283078202B2036342068657829 PUSH1 0x78 SHL PUSH1 0x64 DUP3 ADD MSTORE PUSH1 0x84 SWAP1 REVERT JUMPDEST PUSH1 0x40 MLOAD PUSH3 0x461BCD PUSH1 0xE5 SHL DUP2 MSTORE PUSH1 0x20 PUSH1 0x4 DUP3 ADD MSTORE PUSH1 0x27 PUSH1 0x24 DUP3 ADD MSTORE PUSH32 0x45643235353139207075626C6963206B6579206D757374206265203634206865 PUSH1 0x44 DUP3 ADD MSTORE PUSH7 0x78206368617273 PUSH1 0xC8 SHL PUSH1 0x64 DUP3 ADD MSTORE PUSH1 0x84 SWAP1 REVERT JUMPDEST PUSH1 0x40 MLOAD PUSH3 0x461BCD PUSH1 0xE5 SHL DUP2 MSTORE PUSH1 0x20 PUSH1 0x4 DUP3 ADD MSTORE PUSH1 0x1B PUSH1 0x24 DUP3 ADD MSTORE PUSH32 0x557365726E616D6520616C726561647920726567697374657265640000000000 PUSH1 0x44 DUP3 ADD MSTORE PUSH1 0x64 SWAP1 REVERT JUMPDEST POP PUSH1 0x20 DUP5 GT ISZERO PUSH2 0x585 JUMP JUMPDEST CALLVALUE PUSH2 0x11E JUMPI PUSH1 0x0 CALLDATASIZE PUSH1 0x3 NOT ADD SLT PUSH2 0x11E JUMPI PUSH1 0x2 SLOAD PUSH1 0x40 MLOAD PUSH1 0x1 PUSH1 0x1 PUSH1 0xA0 SHL SUB SWAP1 SWAP2 AND DUP2 MSTORE PUSH1 0x20 SWAP1 RETURN JUMPDEST CALLVALUE PUSH2 0x11E JUMPI PUSH1 0x20 DUP1 PUSH1 0x3 NOT CALLDATASIZE ADD SLT PUSH2 0x11E JUMPI PUSH1 0x4 CALLDATALOAD PUSH1 0x1 PUSH1 0x1 PUSH1 0x40 SHL SUB DUP2 GT PUSH2 0x11E JUMPI PUSH1 0x2 DUP3 PUSH2 0xC0E PUSH2 0xC6C SWAP4 CALLDATASIZE SWAP1 PUSH1 0x4 ADD PUSH2 0x1072 JUMP JUMPDEST SWAP2 SWAP1 PUSH2 0xC30 PUSH1 0xFF PUSH1 0x40 MLOAD DUP6 DUP5 DUP3 CALLDATACOPY DUP5 DUP2 DUP8 DUP2 ADD PUSH1 0x1 DUP2 MSTORE SUB ADD SWAP1 KECCAK256 SLOAD AND PUSH2 0x12F9 JUMP JUMPDEST PUSH2 0xC53 PUSH1 0xFF PUSH1 0x5 PUSH1 0x40 MLOAD DUP7 DUP6 DUP3 CALLDATACOPY DUP6 DUP2 DUP9 DUP2 ADD PUSH1 0x0 DUP2 MSTORE SUB ADD SWAP1 KECCAK256 ADD SLOAD AND PUSH2 0x13E1 JUMP JUMPDEST DUP3 PUSH1 0x40 MLOAD SWAP4 DUP5 SWAP3 DUP4 CALLDATACOPY DUP2 ADD PUSH1 0x0 DUP2 MSTORE SUB ADD SWAP1 KECCAK256 ADD PUSH2 0x133B JUMP JUMPDEST SWAP1 PUSH2 0xC81 PUSH1 0x40 MLOAD SWAP3 DUP3 DUP5 SWAP4 DUP5 MSTORE DUP4 ADD SWAP1 PUSH2 0x110C JUMP JUMPDEST SUB SWAP1 RETURN JUMPDEST CALLVALUE PUSH2 0x11E JUMPI PUSH1 0x20 DUP1 PUSH1 0x3 NOT CALLDATASIZE ADD SLT PUSH2 0x11E JUMPI PUSH1 0x4 CALLDATALOAD PUSH1 0x1 PUSH1 0x1 PUSH1 0x40 SHL SUB DUP2 GT PUSH2 0x11E JUMPI DUP2 PUSH2 0xCBA PUSH2 0xC6C SWAP3 CALLDATASIZE SWAP1 PUSH1 0x4 ADD PUSH2 0x1072 JUMP JUMPDEST SWAP2 SWAP1 PUSH2 0xCDC PUSH1 0xFF PUSH1 0x40 MLOAD DUP6 DUP5 DUP3 CALLDATACOPY DUP5 DUP2 DUP8 DUP2 ADD PUSH1 0x1 DUP2 MSTORE SUB ADD SWAP1 KECCAK256 SLOAD AND PUSH2 0x12F9 JUMP JUMPDEST PUSH2 0xCFF PUSH1 0xFF PUSH1 0x5 PUSH1 0x40 MLOAD DUP7 DUP6 DUP3 CALLDATACOPY DUP6 DUP2 DUP9 DUP2 ADD PUSH1 0x0 DUP2 MSTORE SUB ADD SWAP1 KECCAK256 ADD SLOAD AND PUSH2 0x13E1 JUMP JUMPDEST DUP3 PUSH1 0x40 MLOAD SWAP4 DUP5 SWAP3 DUP4 CALLDATACOPY DUP2 ADD PUSH1 0x0 DUP2 MSTORE SUB ADD SWAP1 KECCAK256 PUSH2 0x133B JUMP JUMPDEST CALLVALUE PUSH2 0x11E JUMPI PUSH2 0xD25 CALLDATASIZE PUSH2 0x109F JUMP JUMPDEST PUSH2 0xD3E PUSH1 0x1 DUP1 PUSH1 0xA0 SWAP7 SWAP6 SWAP5 SWAP7 SHL SUB PUSH1 0x2 SLOAD AND CALLER EQ PUSH2 0x1423 JUMP JUMPDEST PUSH2 0xD49 DUP2 ISZERO ISZERO PUSH2 0x11FE JUMP JUMPDEST PUSH1 0x40 MLOAD SWAP4 DUP3 DUP5 DUP7 CALLDATACOPY DUP3 DUP6 ADD SWAP3 PUSH2 0xD71 PUSH1 0xFF DUP8 PUSH1 0x1 SWAP7 DUP8 DUP2 MSTORE PUSH1 0x20 SWAP10 DUP11 SWAP2 SUB ADD SWAP1 KECCAK256 SLOAD AND PUSH2 0x12F9 JUMP JUMPDEST PUSH2 0xD94 PUSH1 0xFF PUSH1 0x5 PUSH1 0x40 MLOAD DUP5 DUP10 DUP3 CALLDATACOPY DUP10 DUP2 DUP7 DUP2 ADD PUSH1 0x0 DUP2 MSTORE SUB ADD SWAP1 KECCAK256 ADD SLOAD AND PUSH2 0x13E1 JUMP JUMPDEST PUSH1 0x40 MLOAD DUP2 DUP7 DUP3 CALLDATACOPY DUP7 DUP2 DUP4 DUP2 ADD PUSH1 0x0 DUP2 MSTORE SUB ADD SWAP1 KECCAK256 SWAP5 PUSH1 0x1 PUSH1 0x1 PUSH1 0x40 SHL SUB DUP5 GT PUSH2 0x923 JUMPI PUSH2 0xDCB DUP5 PUSH2 0xDC5 DUP9 SLOAD PUSH2 0x124A JUMP JUMPDEST DUP9 PUSH2 0x1284 JUMP JUMPDEST PUSH1 0x0 SWAP6 PUSH1 0x1F DUP6 GT PUSH1 0x1 EQ PUSH2 0xE5E JUMPI DUP5 PUSH32 0xCB7215ACA00031979D292F65058FDA69C4CE6EA5B34C949B565B74522A1CE358 SWAP6 SWAP7 SWAP8 PUSH1 0x0 SWAP2 PUSH2 0xE53 JUMPI JUMPDEST POP PUSH1 0x0 NOT PUSH1 0x3 DUP9 SWAP1 SHL SHR NOT AND DUP7 DUP9 SHL OR SWAP1 SSTORE JUMPDEST DUP2 PUSH1 0x40 MLOAD SWAP3 DUP4 SWAP3 DUP4 CALLDATACOPY DUP2 ADD PUSH1 0x0 DUP2 MSTORE SUB SWAP1 KECCAK256 SWAP3 PUSH2 0xE43 PUSH1 0x40 MLOAD SWAP3 DUP4 SWAP3 PUSH1 0x40 DUP5 MSTORE PUSH1 0x40 DUP5 ADD SWAP2 PUSH2 0x12D8 JUMP JUMPDEST TIMESTAMP DUP8 DUP4 ADD MSTORE SUB SWAP1 LOG2 PUSH1 0x40 MLOAD SWAP1 DUP2 MSTORE RETURN JUMPDEST SWAP1 POP DUP5 ADD CALLDATALOAD DUP10 PUSH2 0xE06 JUMP JUMPDEST PUSH1 0x1F NOT DUP6 AND SWAP7 DUP2 PUSH1 0x0 MSTORE DUP9 PUSH1 0x0 KECCAK256 SWAP1 PUSH1 0x0 JUMPDEST DUP11 DUP11 DUP3 LT PUSH2 0xECD JUMPI POP POP DUP7 PUSH32 0xCB7215ACA00031979D292F65058FDA69C4CE6EA5B34C949B565B74522A1CE358 SWAP8 SWAP9 SWAP10 LT PUSH2 0xEB3 JUMPI JUMPDEST POP POP DUP7 DUP7 DUP2 SHL ADD SWAP1 SSTORE PUSH2 0xE19 JUMP JUMPDEST DUP6 ADD CALLDATALOAD PUSH1 0x0 NOT PUSH1 0x3 DUP10 SWAP1 SHL PUSH1 0xF8 AND SHR NOT AND SWAP1 SSTORE DUP9 DUP1 PUSH2 0xEA5 JUMP JUMPDEST DUP8 DUP4 ADD CALLDATALOAD DUP5 SSTORE SWAP3 DUP10 ADD SWAP3 SWAP2 DUP3 ADD SWAP2 ADD PUSH2 0xE70 JUMP JUMPDEST CALLVALUE PUSH2 0x11E JUMPI PUSH2 0xEEF CALLDATASIZE PUSH2 0x109F JUMP JUMPDEST PUSH2 0xF08 PUSH1 0x1 DUP1 PUSH1 0xA0 SWAP7 SWAP5 SWAP6 SWAP7 SHL SUB PUSH1 0x2 SLOAD AND CALLER EQ PUSH2 0x1423 JUMP JUMPDEST PUSH1 0x40 MLOAD SWAP4 DUP1 DUP4 DUP7 CALLDATACOPY DUP1 DUP6 ADD SWAP3 PUSH2 0xF30 PUSH1 0xFF DUP8 PUSH1 0x1 SWAP7 DUP8 DUP2 MSTORE PUSH1 0x20 SWAP10 DUP11 SWAP2 SUB ADD SWAP1 KECCAK256 SLOAD AND PUSH2 0x12F9 JUMP JUMPDEST DUP3 ISZERO PUSH2 0x1037 JUMPI SWAP1 DUP6 DUP5 SWAP3 PUSH2 0xF5D PUSH1 0xFF PUSH1 0x5 PUSH1 0x40 MLOAD DUP7 DUP6 DUP3 CALLDATACOPY DUP6 DUP2 DUP9 DUP2 ADD PUSH1 0x0 DUP2 MSTORE SUB ADD SWAP1 KECCAK256 ADD SLOAD AND PUSH2 0x13E1 JUMP JUMPDEST DUP3 PUSH1 0x40 MLOAD SWAP4 DUP5 SWAP3 DUP4 CALLDATACOPY DUP2 ADD PUSH1 0x0 DUP2 MSTORE SUB ADD SWAP1 KECCAK256 ADD SWAP1 PUSH1 0x1 PUSH1 0x1 PUSH1 0x40 SHL SUB DUP2 GT PUSH2 0x923 JUMPI PUSH2 0xF94 DUP2 PUSH2 0xF8E DUP5 SLOAD PUSH2 0x124A JUMP JUMPDEST DUP5 PUSH2 0x1284 JUMP JUMPDEST PUSH1 0x0 PUSH1 0x1F DUP3 GT PUSH1 0x1 EQ PUSH2 0xFD4 JUMPI DUP2 SWAP3 SWAP4 SWAP5 PUSH1 0x0 SWAP3 PUSH2 0xFC9 JUMPI JUMPDEST POP POP PUSH1 0x0 NOT PUSH1 0x3 DUP4 SWAP1 SHL SHR NOT AND SWAP1 DUP4 SHL OR SWAP1 SSTORE JUMPDEST PUSH1 0x40 MLOAD SWAP1 DUP2 MSTORE RETURN JUMPDEST ADD CALLDATALOAD SWAP1 POP DUP6 DUP1 PUSH2 0xFAD JUMP JUMPDEST PUSH1 0x1F NOT DUP3 AND SWAP5 DUP4 PUSH1 0x0 MSTORE DUP7 PUSH1 0x0 KECCAK256 SWAP2 PUSH1 0x0 JUMPDEST DUP9 DUP9 DUP3 LT PUSH2 0x1023 JUMPI POP POP DUP4 DUP7 SWAP8 SWAP7 SWAP6 SWAP7 LT PUSH2 0x1009 JUMPI JUMPDEST POP POP POP DUP2 SHL ADD SWAP1 SSTORE PUSH2 0xFC1 JUMP JUMPDEST ADD CALLDATALOAD PUSH1 0x0 NOT PUSH1 0x3 DUP5 SWAP1 SHL PUSH1 0xF8 AND SHR NOT AND SWAP1 SSTORE DUP6 DUP1 DUP1 PUSH2 0xFFC JUMP JUMPDEST DUP4 DUP4 ADD CALLDATALOAD DUP6 SSTORE SWAP4 DUP8 ADD SWAP4 SWAP2 DUP3 ADD SWAP2 ADD PUSH2 0xFE6 JUMP JUMPDEST PUSH1 0x40 MLOAD PUSH3 0x461BCD PUSH1 0xE5 SHL DUP2 MSTORE PUSH1 0x4 DUP2 ADD DUP8 SWAP1 MSTORE PUSH1 0x13 PUSH1 0x24 DUP3 ADD MSTORE PUSH19 0x4349442063616E6E6F7420626520656D707479 PUSH1 0x68 SHL PUSH1 0x44 DUP3 ADD MSTORE PUSH1 0x64 SWAP1 REVERT JUMPDEST SWAP2 DUP2 PUSH1 0x1F DUP5 ADD SLT ISZERO PUSH2 0x11E JUMPI DUP3 CALLDATALOAD SWAP2 PUSH1 0x1 PUSH1 0x1 PUSH1 0x40 SHL SUB DUP4 GT PUSH2 0x11E JUMPI PUSH1 0x20 DUP4 DUP2 DUP7 ADD SWAP6 ADD ADD GT PUSH2 0x11E JUMPI JUMP JUMPDEST PUSH1 0x40 PUSH1 0x3 NOT DUP3 ADD SLT PUSH2 0x11E JUMPI PUSH1 0x1 PUSH1 0x1 PUSH1 0x40 SHL SUB SWAP2 PUSH1 0x4 CALLDATALOAD DUP4 DUP2 GT PUSH2 0x11E JUMPI DUP3 PUSH2 0x10CB SWAP2 PUSH1 0x4 ADD PUSH2 0x1072 JUMP JUMPDEST SWAP4 SWAP1 SWAP4 SWAP3 PUSH1 0x24 CALLDATALOAD SWAP2 DUP3 GT PUSH2 0x11E JUMPI PUSH2 0x10E5 SWAP2 PUSH1 0x4 ADD PUSH2 0x1072 JUMP JUMPDEST SWAP1 SWAP2 JUMP JUMPDEST PUSH1 0x0 JUMPDEST DUP4 DUP2 LT PUSH2 0x10FC JUMPI POP POP PUSH1 0x0 SWAP2 ADD MSTORE JUMP JUMPDEST DUP2 DUP2 ADD MLOAD DUP4 DUP3 ADD MSTORE PUSH1 0x20 ADD PUSH2 0x10EC JUMP JUMPDEST SWAP1 PUSH1 0x20 SWAP2 PUSH2 0x1125 DUP2 MLOAD DUP1 SWAP3 DUP2 DUP6 MSTORE DUP6 DUP1 DUP7 ADD SWAP2 ADD PUSH2 0x10E9 JUMP JUMPDEST PUSH1 0x1F ADD PUSH1 0x1F NOT AND ADD ADD SWAP1 JUMP JUMPDEST PUSH1 0xC0 DUP2 ADD SWAP1 DUP2 LT PUSH1 0x1 PUSH1 0x1 PUSH1 0x40 SHL SUB DUP3 GT OR PUSH2 0x923 JUMPI PUSH1 0x40 MSTORE JUMP JUMPDEST SWAP1 PUSH1 0x1F DUP1 NOT SWAP2 ADD AND DUP2 ADD SWAP1 DUP2 LT PUSH1 0x1 PUSH1 0x1 PUSH1 0x40 SHL SUB DUP3 GT OR PUSH2 0x923 JUMPI PUSH1 0x40 MSTORE JUMP JUMPDEST SWAP3 SWAP2 SWAP3 PUSH1 0x1 PUSH1 0x1 PUSH1 0x40 SHL SUB DUP3 GT PUSH2 0x923 JUMPI PUSH1 0x40 MLOAD SWAP2 PUSH2 0x1196 PUSH1 0x1F DUP3 ADD PUSH1 0x1F NOT AND PUSH1 0x20 ADD DUP5 PUSH2 0x114C JUMP JUMPDEST DUP3 SWAP5 DUP2 DUP5 MSTORE DUP2 DUP4 ADD GT PUSH2 0x11E JUMPI DUP3 DUP2 PUSH1 0x20 SWAP4 DUP5 PUSH1 0x0 SWAP7 ADD CALLDATACOPY ADD ADD MSTORE JUMP JUMPDEST ISZERO PUSH2 0x11BA JUMPI JUMP JUMPDEST PUSH1 0x64 PUSH1 0x40 MLOAD PUSH3 0x461BCD PUSH1 0xE5 SHL DUP2 MSTORE PUSH1 0x20 PUSH1 0x4 DUP3 ADD MSTORE PUSH1 0x20 PUSH1 0x24 DUP3 ADD MSTORE PUSH32 0x557365726E616D65206D75737420626520322D33322063686172616374657273 PUSH1 0x44 DUP3 ADD MSTORE REVERT JUMPDEST ISZERO PUSH2 0x1205 JUMPI JUMP JUMPDEST PUSH1 0x40 MLOAD PUSH3 0x461BCD PUSH1 0xE5 SHL DUP2 MSTORE PUSH1 0x20 PUSH1 0x4 DUP3 ADD MSTORE PUSH1 0x1C PUSH1 0x24 DUP3 ADD MSTORE PUSH32 0x44494420646F63756D656E742063616E6E6F7420626520656D70747900000000 PUSH1 0x44 DUP3 ADD MSTORE PUSH1 0x64 SWAP1 REVERT JUMPDEST SWAP1 PUSH1 0x1 DUP3 DUP2 SHR SWAP3 AND DUP1 ISZERO PUSH2 0x127A JUMPI JUMPDEST PUSH1 0x20 DUP4 LT EQ PUSH2 0x1264 JUMPI JUMP JUMPDEST PUSH4 0x4E487B71 PUSH1 0xE0 SHL PUSH1 0x0 MSTORE PUSH1 0x22 PUSH1 0x4 MSTORE PUSH1 0x24 PUSH1 0x0 REVERT JUMPDEST SWAP2 PUSH1 0x7F AND SWAP2 PUSH2 0x1259 JUMP JUMPDEST SWAP1 PUSH1 0x1F DUP2 GT PUSH2 0x1292 JUMPI POP POP POP JUMP JUMPDEST PUSH1 0x0 SWAP2 DUP3 MSTORE PUSH1 0x20 DUP3 KECCAK256 SWAP1 PUSH1 0x20 PUSH1 0x1F DUP6 ADD PUSH1 0x5 SHR DUP4 ADD SWAP5 LT PUSH2 0x12CE JUMPI JUMPDEST PUSH1 0x1F ADD PUSH1 0x5 SHR ADD SWAP2 JUMPDEST DUP3 DUP2 LT PUSH2 0x12C3 JUMPI POP POP POP JUMP JUMPDEST DUP2 DUP2 SSTORE PUSH1 0x1 ADD PUSH2 0x12B7 JUMP JUMPDEST SWAP1 SWAP3 POP DUP3 SWAP1 PUSH2 0x12AE JUMP JUMPDEST SWAP1 DUP1 PUSH1 0x20 SWAP4 SWAP3 DUP2 DUP5 MSTORE DUP5 DUP5 ADD CALLDATACOPY PUSH1 0x0 DUP3 DUP3 ADD DUP5 ADD MSTORE PUSH1 0x1F ADD PUSH1 0x1F NOT AND ADD ADD SWAP1 JUMP JUMPDEST ISZERO PUSH2 0x1300 JUMPI JUMP JUMPDEST PUSH1 0x40 MLOAD PUSH3 0x461BCD PUSH1 0xE5 SHL DUP2 MSTORE PUSH1 0x20 PUSH1 0x4 DUP3 ADD MSTORE PUSH1 0x13 PUSH1 0x24 DUP3 ADD MSTORE PUSH19 0x155CD95C88191BD95CC81B9BDD08195E1A5CDD PUSH1 0x6A SHL PUSH1 0x44 DUP3 ADD MSTORE PUSH1 0x64 SWAP1 REVERT JUMPDEST SWAP1 PUSH1 0x40 MLOAD SWAP2 DUP3 PUSH1 0x0 DUP3 SLOAD SWAP3 PUSH2 0x134F DUP5 PUSH2 0x124A JUMP JUMPDEST SWAP1 DUP2 DUP5 MSTORE PUSH1 0x1 SWAP5 DUP6 DUP2 AND SWAP1 DUP2 PUSH1 0x0 EQ PUSH2 0x13BE JUMPI POP PUSH1 0x1 EQ PUSH2 0x137B JUMPI JUMPDEST POP POP PUSH2 0x1379 SWAP3 POP SUB DUP4 PUSH2 0x114C JUMP JUMPDEST JUMP JUMPDEST SWAP1 SWAP4 SWAP2 POP PUSH1 0x0 MSTORE PUSH1 0x20 SWAP1 DUP2 PUSH1 0x0 KECCAK256 SWAP4 PUSH1 0x0 SWAP2 JUMPDEST DUP2 DUP4 LT PUSH2 0x13A6 JUMPI POP POP PUSH2 0x1379 SWAP4 POP DUP3 ADD ADD CODESIZE DUP1 PUSH2 0x136B JUMP JUMPDEST DUP6 SLOAD DUP9 DUP5 ADD DUP6 ADD MSTORE SWAP5 DUP6 ADD SWAP5 DUP8 SWAP5 POP SWAP2 DUP4 ADD SWAP2 PUSH2 0x138E JUMP JUMPDEST SWAP2 POP POP PUSH2 0x1379 SWAP5 POP PUSH1 0x20 SWAP3 POP PUSH1 0xFF NOT AND DUP3 DUP5 ADD MSTORE ISZERO ISZERO PUSH1 0x5 SHL DUP3 ADD ADD CODESIZE DUP1 PUSH2 0x136B JUMP JUMPDEST ISZERO PUSH2 0x13E8 JUMPI JUMP JUMPDEST PUSH1 0x40 MLOAD PUSH3 0x461BCD PUSH1 0xE5 SHL DUP2 MSTORE PUSH1 0x20 PUSH1 0x4 DUP3 ADD MSTORE PUSH1 0x13 PUSH1 0x24 DUP3 ADD MSTORE PUSH19 0x155CD95C881A5CC819195858DD1A5D985D1959 PUSH1 0x6A SHL PUSH1 0x44 DUP3 ADD MSTORE PUSH1 0x64 SWAP1 REVERT JUMPDEST ISZERO PUSH2 0x142A JUMPI JUMP JUMPDEST PUSH1 0x40 MLOAD PUSH3 0x461BCD PUSH1 0xE5 SHL DUP2 MSTORE PUSH1 0x20 PUSH1 0x4 DUP3 ADD MSTORE PUSH1 0xA PUSH1 0x24 DUP3 ADD MSTORE PUSH10 0x27B7363C9037BBB732B9 PUSH1 0xB1 SHL PUSH1 0x44 DUP3 ADD MSTORE PUSH1 0x64 SWAP1 REVERT INVALID LOG2 PUSH5 0x6970667358 0x22 SLT KECCAK256 0xAF 0x4B 0xDE PUSH24 0x781156396D2E02E25772287145CB2A253E2C8758772A8E50 CODECOPY 0xC CALLCODE SWAP12 PUSH5 0x736F6C6343 STOP ADDMOD SGT STOP CALLER "
        },
        "methodIdentifiers": {
          "deactivateUser(string)": "c03a6aa2",
          "getDIDDocument(string)": "784afc4e",
          "getEd25519PublicKey(string)": "7b46a92a",
          "getUserProfile(string)": "a81203b6",
          "isUserActive(string)": "e097e925",
          "isUsernameAvailable(string)": "f69c6dec",
          "owner()": "8da5cb5b",
          "registerUser(string,string,string,string)": "93e54a56",
          "registeredUsernames(string)": "a73e1627",
          "totalUsers()": "bff1f9e1",
          "transferOwnership(address)": "f2fde38b",
          "updateDIDDocument(string,string)": "3afb0e8b",
          "updateMetadataCID(string,string)": "0148a54b"
        }
      }
    }
  }
}